:020000040000fa
:080000000002040000000000f2
:020000040000fa
:04000800520300009f
:020000040000fa
:04000c00520300009b
:020000040000fa
:040010005203000097
:020000040000fa
:040014005203000093
:020000040000fa
:04001800520300008f
:020000040000fa
:04001c00520300008b
:020000040000fa
:040020005203000087
:020000040000fa
:040024005203000083
:020000040000fa
:04002800520300007f
:020000040000fa
:04002c00520300007b
:020000040000fa
:040030005203000077
:020000040000fa
:04003400c8020000fe
:020000040000fa
:04003800520300006f
:020000040000fa
:04003c00520300006b
:020000040000fa
:040040005203000067
:020000040000fa
:040044005203000063
:020000040000fa
:04004800520300005f
:020000040000fa
:04004c00520300005b
:020000040000fa
:040050005203000057
:020000040000fa
:040054005203000053
:020000040000fa
:04005800520300004f
:020000040000fa
:04005c00520300004b
:020000040000fa
:040060005203000047
:020000040000fa
:040064005203000043
:020000040000fa
:04006800520300003f
:020000040000fa
:04006c00520300003b
:020000040000fa
:040070005203000037
:020000040000fa
:040074005203000033
:020000040000fa
:04007800520300002f
:020000040000fa
:04007c00520300002b
:020000040000fa
:040080005203000027
:020000040000fa
:040084005203000023
:020000040000fa
:04008800520300001f
:020000040000fa
:04008c00520300001b
:020000040000fa
:040090005203000017
:020000040000fa
:040094005203000013
:020000040000fa
:04009800520300000f
:020000040000fa
:04009c00520300000b
:020000040000fa
:0400a0005203000007
:020000040000fa
:0400a4005203000003
:020000040000fa
:0400a80052030000ff
:020000040000fa
:0400ac0052030000fb
:020000040000fa
:0400b00052030000f7
:020000040000fa
:0400b40052030000f3
:020000040000fa
:0400b80052030000ef
:020000040000fa
:0400bc0052030000eb
:020000040000fa
:0400c00052030000e7
:020000040000fa
:0400c40052030000e3
:020000040000fa
:0400c80052030000df
:020000040000fa
:0400cc0052030000db
:020000040000fa
:0400d00052030000d7
:020000040000fa
:0400d40052030000d3
:020000040000fa
:0400d80052030000cf
:020000040000fa
:0400dc0052030000cb
:020000040000fa
:0400e00052030000c7
:020000040000fa
:0400e40052030000c3
:020000040000fa
:0400e80052030000bf
:020000040000fa
:0400ec0052030000bb
:020000040000fa
:0400f00052030000b7
:020000040000fa
:0400f40052030000b3
:020000040000fa
:0400f80052030000af
:020000040000fa
:0400fc0052030000ab
:020000040000fa
:0401000052030000a6
:020000040000fa
:0401040052030000a2
:020000040000fa
:04010800520300009e
:020000040000fa
:04010c00520300009a
:020000040000fa
:040110005203000096
:020000040000fa
:040114005203000092
:020000040000fa
:04011800520300008e
:020000040000fa
:04011c00520300008a
:020000040000fa
:040120005203000086
:020000040000fa
:040124005203000082
:020000040000fa
:04012800520300007e
:020000040000fa
:04012c00520300007a
:020000040000fa
:040130005203000076
:020000040000fa
:040134005203000072
:020000040000fa
:04013800520300006e
:020000040000fa
:04013c00520300006a
:020000040000fa
:040140005203000066
:020000040000fa
:040144005203000062
:020000040000fa
:04014800520300005e
:020000040000fa
:04014c00520300005a
:020000040000fa
:040150005203000056
:020000040000fa
:040154005203000052
:020000040000fa
:04015800520300004e
:020000040000fa
:04015c00520300004a
:020000040000fa
:04016000f4020000a5
:020000040000fa
:040164002403000070
:020000040000fa
:04020800520300009d
:020000040000fa
:04020c005203000099
:020000040000fa
:040210005203000095
:020000040000fa
:040214005203000091
:020000040000fa
:04021800520300008d
:020000040000fa
:04021c005203000089
:020000040000fa
:040220005203000085
:020000040000fa
:040224005203000081
:020000040000fa
:04022800520300007d
:020000040000fa
:04022c005203000079
:020000040000fa
:040230005203000075
:020000040000fa
:04023400c8020000fc
:020000040000fa
:04023800520300006d
:020000040000fa
:04023c005203000069
:020000040000fa
:040240005203000065
:020000040000fa
:040244005203000061
:020000040000fa
:04024800520300005d
:020000040000fa
:04024c005203000059
:020000040000fa
:040250005203000055
:020000040000fa
:040254005203000051
:020000040000fa
:04025800520300004d
:020000040000fa
:04025c005203000049
:020000040000fa
:040260005203000045
:020000040000fa
:040264005203000041
:020000040000fa
:04026800520300003d
:020000040000fa
:04026c005203000039
:020000040000fa
:040270005203000035
:020000040000fa
:040274005203000031
:020000040000fa
:04027800520300002d
:020000040000fa
:04027c005203000029
:020000040000fa
:040280005203000025
:020000040000fa
:040284005203000021
:020000040000fa
:04028800520300001d
:020000040000fa
:04028c005203000019
:020000040000fa
:040290005203000015
:020000040000fa
:040294005203000011
:020000040000fa
:04029800520300000d
:020000040000fa
:04029c005203000009
:020000040000fa
:0402a0005203000005
:020000040000fa
:0402a4005203000001
:020000040000fa
:0402a80052030000fd
:020000040000fa
:0402ac0052030000f9
:020000040000fa
:0402b00052030000f5
:020000040000fa
:0402b40052030000f1
:020000040000fa
:0402b80052030000ed
:020000040000fa
:0402bc0052030000e9
:020000040000fa
:0402c00052030000e5
:020000040000fa
:0402c40052030000e1
:020000040000fa
:0402c80052030000dd
:020000040000fa
:0402cc0052030000d9
:020000040000fa
:0402d00052030000d5
:020000040000fa
:0402d40052030000d1
:020000040000fa
:0402d80052030000cd
:020000040000fa
:0402dc0052030000c9
:020000040000fa
:0402e00052030000c5
:020000040000fa
:0402e40052030000c1
:020000040000fa
:0402e80052030000bd
:020000040000fa
:0402ec0052030000b9
:020000040000fa
:0402f00052030000b5
:020000040000fa
:0402f40052030000b1
:020000040000fa
:0402f80052030000ad
:020000040000fa
:0402fc0052030000a9
:020000040000fa
:0403000052030000a4
:020000040000fa
:0403040052030000a0
:020000040000fa
:04030800520300009c
:020000040000fa
:04030c005203000098
:020000040000fa
:040310005203000094
:020000040000fa
:040314005203000090
:020000040000fa
:04031800520300008c
:020000040000fa
:04031c005203000088
:020000040000fa
:040320005203000084
:020000040000fa
:040324005203000080
:020000040000fa
:04032800520300007c
:020000040000fa
:04032c005203000078
:020000040000fa
:040330005203000074
:020000040000fa
:040334005203000070
:020000040000fa
:04033800520300006c
:020000040000fa
:04033c005203000068
:020000040000fa
:040340005203000064
:020000040000fa
:040344005203000060
:020000040000fa
:04034800520300005c
:020000040000fa
:04034c005203000058
:020000040000fa
:040350005203000054
:020000040000fa
:040354005203000050
:020000040000fa
:04035800520300004c
:020000040000fa
:04035c005203000048
:020000040000fa
:04036000f4020000a3
:020000040000fa
:04036400240300006e
:020000040000fa
:100400004f8020000e7f24000e01880000000000b5
:10041000000020000000e000020032000001200087
:100420002002880014000700a00007000000e00080
:1004300003003a0080422000010020000200370043
:100440000000200001002000810f70000100320038
:1004500014000700000020000000e000020032004d
:10046000000002000000000058030200000000002d
:100470000040da000000fe004440a9000000200017
:100480000000e0000300320000002000a00188000e
:100490004440a800000006008a1f78008b1f7800e7
:1004a0000000060091018800800478000000eb0045
:1004b0001a003700e284440032a0b4009905ba0063
:1004c000e284440032a0b4009906ba00e2844400f9
:1004d00032a0b4000006eb00476fde00fd07b2005b
:1004e000636ce10003003a00ebff07000000eb0043
:1004f0000a003700606ce10004003a00005deb0088
:100500008b05e900fdff3e00040037006168e10053
:10051000010032000086eb000b00070019c7ba008b
:100520001905ba000e04e00003003a000a00e000da
:10053000e0ff3a0000000600fe07b2009e018800be
:100540008a047800f5ff3700395dba008b05e900b1
:100550000c003200295dba008b05e900080032006a
:100560000c00e00003003a00e284440032a0b40032
:10057000f5ff370019ddba008b05e900faff3a00f4
:100580008904e800e184440032a0b40000000600c1
:10059000809fbe003400f80000002000a001880009
:1005a0000000fa00601680004600de006140600036
:1005b0000004a200614060000080fb006100600058
:1005c0004600dd00611680000160a100010070009e
:1005d000601688008460a9000080fa003400f900e9
:1005e0004f00be0000400600809fbe000000fa00e1
:1005f0008dc0a90010408000b01f8800114080000d
:1006000010622000008040001040880060168000ca
:100610004600de00614060000004a200614060000e
:100620000080fb00610060004600dd006116800074
:100630000160a10001007000601688000080fa00cf
:100640004f00be0000400600809fbe000000fa0080
:100650008de0a90000408000c01f8800004080009d
:100660006500400000408800601680004700de0002
:10067000614060000004a200614060000080fb0057
:10068000610060004700dd00611680000170a1007c
:1006900001007000601688000080fa004f00be0064
:1006a000004006000040da000000fe0000000500e7
:020000040000fa
:1006b0000000fa0000352c005d0007000400070070
:1006c000210007008038210059000700fdff370096
:1006d0000000fa00213a8000f0f32f000080600053
:1006e000203a8800213a800000fe2f000080600040
:1006f0000020a000203a8800313a800000e02f005e
:1007000080806000e009200001007000303a88001d
:10071000113a8000f08f2f008080600000302000b0
:1007200001007000103a8800c822ef00cc22ef00d0
:100730003136800000fe2f000080600030368800d7
:100740000080fa00000006000000fa004ba7a90094
:10075000513a80000070200001007000503a88007b
:1007600051068000f0ff2800808060000000260015
:10077000010070005006880051068000f08f2f00a5
:10078000808060000050200001007000500688004a
:10079000f2e3a800f3e3a800f243a900f343a900a1
:1007a000f183a900811f800000f82f000080600005
:1007b000d000b300801f8800f103a90000002800ca
:1007c000a01f88008dc0a9008de0a9009dc0a800d1
:1007d0009de0a800f1e3a8000080fa0000000600f8
:1007e0000000fa0005e1a9000421a90004c1a90044
:1007f00021088000f0fc2f000080600020088800a5
:100800000021ef000034200010088800210580003e
:100810000000270001007000200588008460a90006
:100820009460a80005e1a8000080fa00000006001e
:100830000200fa00000f78001e0fe9001e00780089
:100840000000e000fcff3a000080fa000000060013
:020000040000fa
:10085000000800000400000000000000000000008c
:020000040000fa
:0200000401f009
:04000000ffff0000fe
:020000040000fa
:0200000401f009
:04000400ffff0000fa
:020000040000fa
:0200000401f009
:04000800ffff0000f6
:020000040000fa
:0200000401f009
:04000c00830000006d
:020000040000fa
:0200000401f009
:04001000a600000046
:020000040000fa
:0200000401f009
:040014005f00000089
:020000040000fa
:0200000401f009
:04001800f7000000ed
:020000040000fa
:0200000401f009
:04001c00dfff000002
:00000001FF
